:02000002D0002C
:1040000000400D0048510D00000006000C000501A5
:084010000401FD08000000009E
:04401800004F0D0048
:10401C0009480A49884208B505D0094A824202D0AB
:10402C00121A00F0BFFE0748074A0021121A00F0CE
:10403C00C7FE014808BD00BF30E50320B4500D0099
:10404C009CE503209CE50320EDE7032070B5074EAB
:10405C00074C00F0C5FDA41BA4080025A54200D107
:10406C0070BD56F8043B98470135F7E788500D00B2
:10407C00AC500D0000F013B808B500F014F8BDE812
:10408C00084000F065BD00F0C9B900F0CFB9007868
:10409C00B0FA80F04009704701230370704701218A
:1040AC00072000F00DBE08B50121072000F019FE15
:1040BC0040F6B83000F0CAF90720002100F011FEDC
:1040CC00BDE808404FF47A7000F0C0B908B5012083
:1040DC00002100F01FF9064B00221A609A809A7199
:1040EC00A2F580329A60BDE80840022000F002B9C7
:1040FC009CE5032008B5024B1B685B6C019308BD63
:10410C004802030008B5024B1B685B68019308BDAD
:10411C001802030008B5024B1B685B69019308BDCC
:10412C001802030008B5024B1B689B68019308BD7D
:10413C002C02030008B5024B1B68DB68019308BD19
:10414C002C02030008B5024B1B681B69019308BDC8
:10415C002C02030008B5024B1B681B6A019308BDB7
:10416C002802030008B5024B1B685B6A019308BD6B
:10417C002802030008B5024B1B689B6A019308BD1B
:10418C002802030008B5024B1B68DB6A019308BDCB
:10419C002802030008B5024B1B681B6B019308BD7A
:1041AC002802030008B5024B1B685B6B019308BD2A
:1041BC002802030008B5024B1B681B6C019308BD59
:1041CC002802030008B5024B1B685B69019308BD0C
:1041DC006402030008B5024B1B689B68019308BD81
:1041EC006802030008B5024B1B68DB68019308BD2D
:1041FC006802030008B5024B1B68DB69019308BD1C
:10420C003002030008B5024B1B681B6A019308BD02
:10421C003002030008B5024B1B681B68019308BDF4
:10422C003C02030008B5024B1B68DB68019308BD18
:10423C003C02030008B5024B1B681B69019308BDC7
:10424C003C02030008B5024B1B685B69019308BD77
:10425C003C02030008B5024B1B689B69019308BD27
:10426C003C02030008B5024B1B68DB69019308BDD7
:10427C003C02030008B5024B1B681B6A019308BD86
:10428C003C02030008B5024B1B689B6A019308BDF6
:10429C003C02030008B5024B1B681B68019308BD68
:1042AC004C02030008B5024B1B681B69019308BD47
:1042BC004C02030008B5024B1B685B69019308BDF7
:1042CC004C02030008B5024B1B689B69019308BDA7
:1042DC004C02030008B5024B1B68DB69019308BD57
:1042EC004C02030008B5024B1B681B6A019308BD06
:1042FC004C02030008B5024B1B685B68019308BDB8
:10430C002002030008B5024B1B685B69019308BDD2
:10431C002002030008B5024B1B68DB6A019308BD41
:10432C002002030008B5034B1B68D3F888300193B7
:10433C0008BD00002002030008B5034B1B68D3F82E
:10434C009430019308BD00002002030008B5024B15
:10435C001B68DB6B019308BD4402030008B5024BDC
:10436C001B685B68019308BD4002030008B5024B53
:10437C001B689B68019308BD4002030008B5024B03
:10438C001B68DB68019308BD4002030008B5024BB3
:10439C001B681B69019308BD4002030008B5024B62
:1043AC001B685B69019308BD4002030008B5024B12
:1043BC001B689B69019308BD4002030008B5024BC2
:1043CC001B68DB69019308BD4002030008B5024B72
:1043DC001B681B6A019308BD4002030008B5024B21
:1043EC001B681B6B019308BD4002030008B5024B10
:1043FC001B685B6B019308BD4002030008B5024BC0
:10440C001B681B6C019308BD4002030008B5024BEE
:10441C001B685B6C019308BD4002030008B5024B9E
:10442C001B681B68019308BD1C02030008B5024BF6
:10443C001B685B68019308BD1C02030008B5024BA6
:10444C001B685B6C019308BD1C0203000021FFF785
:10445C0059BF0000024800230360FFF74BBE00BFAA
:10446C00A8E50320002240681146FFF7AFBF0022E9
:10447C0040681146FFF7BABF40680022FFF7AEBF95
:10448C004068002281F00101FFF798BF00234068CB
:10449C001A461946FFF78ABF002340681A46194688
:1044AC00FFF77CBF002240681146FFF76FBF002268
:1044BC0040681146FFF75ABF406800220221FFF7FF
:1044CC005DBF002340681A46FFF748BF024B03222A
:1044DC005A60024A1A607047ACE503201C4F0D006D
:1044EC007047F8B5064615460C468F18BC4206D0E8
:1044FC00336814F8011B9B6830469847F6E728464A
:10450C00F8BD007C0022FFF725BE007C0021FFF7E0
:10451C0029BE007C0021FFF72DBE007C0021FFF797
:10452C0031BE007C0021FFF735BE10B514210446C6
:10453C0000F02EFC204610BD10B54FF47A730446E3
:10454C0008460021C4E90113034B23602074114673
:10455C00FFF730FE204610BD584F0D00704710B5C8
:10456C001821044600F014FC204610BDF0B5037D64
:10457C00062B8DB00E4600F104074FF0000412D04C
:10458C0000F1080515F8011D0A22304600F03BF930
:10459C00AF42044419D0002CF4D02E21304600F048
:1045AC002FF90444EEE72F236A4639460A208DF88A
:1045BC000040FFF707FE684600F02EFC3368024609
:1045CC00DB68694630469847044620460DB0F0BD7E
:1045DC0010B5054B0446112240F8043B002100F0B5
:1045EC00EFFB204610BD00BF804F0D000346074A6D
:1045FC0010B543F8042B01F1100251F8044B43F8A9
:10460C00044B9142F9D10A781A7010BD804F0D00FD
:10461C0010B59DF8084044EA032343EA024242EAFB
:10462C00016104234160037510BD13B5CB78009371
:10463C008B784A780978FFF7EBFF02B010BD0000C9
:10464C00014B024A1A607047B4E503208C4F0D00F1
:10465C00002340681A46FFF781BE40680022022101
:10466C00FFF78CBE002240681146FFF77FBE002288
:10467C0040681146FFF78ABE002340681A46194667
:10468C00FFF78CBE002340681A461946FFF78EBE12
:10469C0040680021FFF7B2BE40680021FFF7B6BEAC
:1046AC004068002281F00101FFF788BE40680022BB
:1046BC00FFF794BE002240681146FFF797BE002218
:1046CC0040681146FFF782BE2DE9F043002495B0F7
:1046DC0016460D460746FFF77BFF214618220EA80B
:1046EC00009400F06DFB4023CDE90C3421466B4661
:1046FC000CAA3046FFF776FD0446002846D1024648
:10470C0001216868FFF742FE022180462246686854
:10471C00FFF73CFE009E81462146002E36D0002934
:10472C0034D17368022B03D00A2B0BD0F669F4E753
:10473C00B8F1000F04D0716938460431FFF775FFEA
:10474C004146F3E7B9F1000F01D14946EEE7746930
:10475C00102201A800F034FB06238DF8143001ADB3
:10476C0004F108031834186859682A4603C2083340
:10477C00A3421546F7D101A906A807ADFFF736FFEE
:10478C000FCD3C1D0FC42B682370DEE70098FFF79C
:10479C0021FD384615B0BDE8F0830000024B034AFA
:1047AC001A6000225A607047B8E50320984F0D003C
:1047BC00F8B506460D468F180024BD420CD0336860
:1047CC0015F8011B9B6830469847031E01DB1C44FF
:1047DC00F3E7002C08BF1C462046F8BD13B5044671
:1047EC00084659B1019100F017FB23680199DB6869
:1047FC000246204602B0BDE81040184702B010BD7A
:10480C0003689B68184730B58BB000238DF82430B3
:10481C00012A98BF0A2209AC0D46B1FBF2F101FB4B
:10482C00125303F0FF03092B94BF30333733DBB241
:10483C00AA4204F8013DEFD92146FFF7CFFF0BB098
:10484C0030BD0000014B00229A607047C0E5032088
:10485C0010B5044608462170FFF7CCFC00236360BA
:10486C00204610BD054B02221A60054B054A9A6082
:10487C000020186098809871FFF73CBDDCE50320A0
:10488C00D0E503200000FFFF024B1A68024B1A60B0
:10489C00704700BF30E50320E0E50320704741740A
:1048AC007047704708B5007CFFF7ECFC20EAE0701D
:1048BC0008BD08B5007CFFF7BDFC20EAE07008BD20
:1048CC0008B5007CFFF7C6FC40EAE07008BD08B5EF
:1048DC00007CFFF7B7FC40EAE07008BD007CFFF7F6
:1048EC00C1BC37B5457C04462DB1207C03B0BDE876
:1048FC003040FFF797BC007C0191FFF7C3FC002808
:10490C000199F2DC284603B030BD10B514210446E1
:10491C0000F03EFA204610BD10B54FF0000C0446D6
:10492C00084611464FF47A72C4E901C2044A226067
:10493C000122207462741A46FFF76CFC204610BDED
:10494C00F04F0D0013B50D4C2178BFF35B8F11F0B8
:10495C00010110D120460191FFF799FB019950B14B
:10496C00074B084A0848FFF7D7FF2046FFF794FB90
:10497C00064800F011FA044802B010BDE4E503202B
:10498C006CE60320E8E50320F0E60320AF480D00B9
:10499C00417470477047704708B50021007CFFF7E1
:1049AC0091FC40EAE07008BD08B50121007CFFF7DE
:1049BC0089FC40EAE07008BD08B5007CFFF77AFC82
:1049CC0020EAE07008BD08B5007CFFF76BFC20EA1C
:1049DC00E07008BD13B50446007C0191FFF76AFC3A
:1049EC000028019901DC607C20B1207CFFF772FC6F
:1049FC0020EAE07002B010BD007CFFF773BC10B56C
:104A0C001421044600F0C4F9204610BD10B54FF433
:104A1C007A73044608460021C4E90113044B236051
:104A2C000123207463741146FFF734FC204610BD3B
:104A3C0020500D0010B514220446002100F0C0F9DE
:104A4C00204610BD10B50F4C88B003A8FFF7F2FF3D
:104A5C002178BFF35B8F11F001010FD1204601913A
:104A6C00FFF715FB019948B103AA0748FFF7CEFFE2
:104A7C002046FFF711FB054800F08EF9024808B0FC
:104A8C0010BD00BF04E7032008E70320A1490D0077
:104A9C00002240681146FFF779BC0022406811469D
:104AAC00FFF794BC002240681146FFF79FBC40689A
:104ABC000022FFF793BC4068002281F00101FFF750
:104ACC007DBC002340681A461946FFF76FBC0023D3
:104ADC0040681A461946FFF761BC0022406811462F
:104AEC00FFF744BC406800220221FFF747BC0023BB
:104AFC0040681A46FFF732BC024B04225A60024A45
:104B0C001A6070471CE7032050500D00014B1860D1
:104B1C00704700BF34E5032008B50B4B43B1FFF7DA
:104B2C0091FF03681B699847002801DDAFF30080F3
:104B3C00064B43B1FFF706FF03681B699847002833
:104B4C0001DDAFF3008008BD000000000000000094
:104B5C0008B5FFF7E1FFFFF7DDFA014B186008BD60
:104B6C0038E703200548064A064908B5121A00F032
:104B7C0019F9054B054A1A6008BD00BF00F4032063
:104B8C0004F40320B0500D0000F403201E1C279ADF
:104B9C0007B5002300931A466FF07701FFF7CCFBA3
:104BAC0003B05DF804FB000007B543880A2B08D05E
:104BBC00502B0BD1094B1B684BB103B05DF804EBC8
:104BCC001847FFF7E5FF03B05DF804FB00230093E3
:104BDC001A466FF07701FFF7AFFBF4E728E70320E5
:104BEC0010B512480021FFF729FC114B1A68114B24
:104BFC009A42114B0CBF012200221A7001D0FFF710
:104C0C00B1FFFFF77FFA044600F0E2F80B4B13B14B
:104C1C002046AFF3008000210848FFF797FBBDE862
:104C2C00104007480021FFF77DBB00BF194B0D005A
:104C3C0000F403201E1C279A24E703200000000028
:104C4C00B54B0D00232813B502D9002002B010BDBE
:104C5C00A0F10B03022B1AD8174C2178BFF35B8FF2
:104C6C0011F001010BD120460191FFF710FA0199C7
:104C7C0028B11248FFF7ECFD2046FFF70DFA0F4B59
:104C8C001878FFF7BFFA0028DFD10120DEE70128F2
:104C9C0009D800F059F80021007CFFF783FA80F066
:104CAC000100C0B2D2E709380128EED8FFF74AFE5E
:104CBC00007CFFF7DFFAF2E72CE7032030E7032054
:104CCC00232838B504460D460AD8FF2908D0FFF72B
:104CDC00B9FF28B129462046BDE83840FFF722BA73
:104CEC0038BD38B504460D46FFF724FAFF2810D01E
:104CFC00062804D84D2323FA00F0C30709D4204614
:104D0C00FFF7A0FF28B129462046BDE83840FFF741
:104D1C0019BA38BD7047000038B5002320254380F0
:104D2C00142304460380856005610649284600F07B
:104D3C0031F804496060284600F02CF8E060204609
:104D4C0038BD00BF84500D0030B50E4D2978BFF32F
:104D5C005B8F11F0010487B011D12846FFF797F94A
:104D6C0068B101A8FFF7D8FF01AA21460648FFF752
:104D7C00E3FB2846FFF790F9044800F00DF80248D1
:104D8C0007B030BD3CE7032040E70320214D0D0068
:104D9C00FFF77BB9FFF777B9002301461A4618468F
:104DAC0000F042B80A44914200F1FF3300D1704741
:104DBC0010B511F8014B03F8014F9142F9D110BD18
:104DCC0002440346934200D1704703F8011BF9E7F4
:104DDC0038B50D4B1D68AB6B04467BB91820FFF73B
:104DEC001DFB0A4A0A4BA863C0E90023094B8360E8
:104DFC000B23838101220023C0E90423AB6B002227
:104E0C001C615A6138BD00BF34E503200E33CDABB5
:104E1C0034126DE6ECDE0500034613F8012B002A74
:104E2C00FBD1181A013870472DE9F843DFF8B88028
:104E3C000646D8F800001F460D46914600F056F87D
:104E4C00254B1C6834B9254C1C60254B13B11B68D1
:104E5C00C4F8883063681F2B07DDD8F8000000F019
:104E6C0047F84FF0FF30BDE8F8834EB3D4F8880014
:104E7C0088B91C4B23B9D8F8000000F038F8F0E7DB
:104E8C004FF48470FFF7CAFA0028F4D00023C0E96D
:104E9C004033C4F88800636840F8239001229A409C
:104EAC0000EB8301D0F800311343022EC0F800311F
:104EBC00C1F8807002BFD0F804311A43C0F8042145
:104ECC006368D8F800005A1C0233626044F823501F
:104EDC0000F00EF80020C6E7E0E7032054E70320BB
:104EEC000000000029440D0098E50320704770472E
:104EFC00704700001D400D0059400D0081400D0011
:104F0C0085400D00000000000000000000000000C3
:104F1C00CF440D00C5440D00BB440D00B1440D0041
:104F2C00A5440D0099440D009D460D00A5460D00AD
:104F3C008D440D0085440D007B440D0071440D0023
:104F4C00D5460D000000000000000000ED440D00EF
:104F5C0037450D000F450D00EF440D0017450D00B2
:104F6C001F450D0027450D002F450D0000000000CA
:104F7C000000000079450D0069450D006B450D00E2
:104F8C006170700000000000000000005D460D0024
:104F9C0067460D0071460D007B460D0085460D00E1
:104FAC0091460D009D460D00A5460D00AD460D0029
:104FBC00B9460D00C1460D00CB460D00D5460D007F
:104FCC0025592D256D2D25645425483A254D3A2516
:104FDC0053257A0061736374696D650000000000ED
:104FEC0000000000A9480D0017490D00EF480D0006
:104FFC00BD470D00BF480D00DB480D00CD480D002E
:10500C00E9480D00AB480D00B1480D000000000050
:10501C0000000000A3490D000B4A0D00E1490D00F2
:10502C00BD470D00D3490D00A5490D00B5490D0034
:10503C00054A0D00C5490D009D490D0000000000FA
:10504C0000000000FB4A0D00F14A0D00E74A0D007C
:10505C009D4A0D00DB4A0D00CF4A0D009D460D0008
:10506C00A5460D00C34A0D00BB4A0D00B14A0D0008
:10507C00A74A0D00D5460D0000000000D9400D00D8
:10508C0061440D00D9440D004D460D00A9470D009B
:10509C0051480D0071480D0095480D00054B0D0051
:0450AC000000000000
:0450B00000000000FC
:1050B400E04F0D0038E50320000000000000000070
:1050C40000000000000000000000000000000000DC
:1050D40000000000000000000000000000000000CC
:1050E40000000000000000000000000000000000BC
:1050F40000000000000000000000000000000000AC
:10510400000000000000000000000000000000009B
:0C5114000000000000000000E5E70320A0
:10512000FFFFFFFF00000102030405060708090A4C
:105130000B0C0D0E0F101112131415161718191A47
:085140001B1C1D1E1F2028008E
:04514800785634124F
:04000003D000401CCD
:00000001FF
